{
  "contractName": "CryptoDrive",
  "abi": [
    {
      "constant": false,
      "inputs": [
        {
          "internalType": "string",
          "name": "user_id",
          "type": "string"
        },
        {
          "internalType": "string",
          "name": "filehash",
          "type": "string"
        },
        {
          "internalType": "string",
          "name": "filename",
          "type": "string"
        }
      ],
      "name": "AddFileHash",
      "outputs": [],
      "payable": false,
      "stateMutability": "nonpayable",
      "type": "function"
    },
    {
      "constant": true,
      "inputs": [
        {
          "internalType": "string",
          "name": "user_id",
          "type": "string"
        }
      ],
      "name": "GetFilehash",
      "outputs": [
        {
          "components": [
            {
              "internalType": "string",
              "name": "filehash",
              "type": "string"
            },
            {
              "internalType": "string",
              "name": "filename",
              "type": "string"
            }
          ],
          "internalType": "struct CryptoDrive.File[]",
          "name": "",
          "type": "tuple[]"
        }
      ],
      "payable": false,
      "stateMutability": "view",
      "type": "function"
    },
    {
      "constant": false,
      "inputs": [
        {
          "internalType": "string",
          "name": "user_id",
          "type": "string"
        },
        {
          "internalType": "string",
          "name": "pass_hash",
          "type": "string"
        },
        {
          "internalType": "string",
          "name": "public_keys",
          "type": "string"
        }
      ],
      "name": "SignUp",
      "outputs": [],
      "payable": false,
      "stateMutability": "nonpayable",
      "type": "function"
    },
    {
      "constant": true,
      "inputs": [
        {
          "internalType": "string",
          "name": "user_id",
          "type": "string"
        }
      ],
      "name": "GetPassHash",
      "outputs": [
        {
          "internalType": "string",
          "name": "",
          "type": "string"
        }
      ],
      "payable": false,
      "stateMutability": "view",
      "type": "function"
    },
    {
      "constant": true,
      "inputs": [
        {
          "internalType": "string",
          "name": "user_id",
          "type": "string"
        }
      ],
      "name": "getPublicKey",
      "outputs": [
        {
          "internalType": "string",
          "name": "",
          "type": "string"
        }
      ],
      "payable": false,
      "stateMutability": "view",
      "type": "function"
    }
  ],
  "bytecode": "0x608060405234801561001057600080fd5b50610af7806100206000396000f3fe608060405234801561001057600080fd5b50600436106100575760003560e01c80630bd141031461005c578063146f46d31461008c57806370758498146100a8578063bff90821146100c4578063cdaa3abf146100f4575b600080fd5b610076600480360361007191908101906106e9565b610124565b604051610083919061096a565b60405180910390f35b6100a660048036036100a1919081019061072a565b6101e4565b005b6100c260048036036100bd919081019061072a565b610284565b005b6100de60048036036100d991908101906106e9565b6102ef565b6040516100eb919061096a565b60405180910390f35b61010e600480360361010991908101906106e9565b6103af565b60405161011b9190610948565b60405180910390f35b60606001826040516101369190610931565b90815260200160405180910390208054600181600116156101000203166002900480601f0160208091040260200160405190810160405280929190818152602001828054600181600116156101000203166002900480156101d85780601f106101ad576101008083540402835291602001916101d8565b820191906000526020600020905b8154815290600101906020018083116101bb57829003601f168201915b50505050509050919050565b6000836040516101f49190610931565b908152602001604051809103902060405180604001604052808481526020018381525090806001815401808255809150509060018203906000526020600020906002020160009091929091909150600082015181600001908051906020019061025e929190610570565b50602082015181600101908051906020019061027b929190610570565b50505050505050565b816001846040516102959190610931565b908152602001604051809103902090805190602001906102b69291906105f0565b50806002846040516102c89190610931565b908152602001604051809103902090805190602001906102e99291906105f0565b50505050565b60606002826040516103019190610931565b90815260200160405180910390208054600181600116156101000203166002900480601f0160208091040260200160405190810160405280929190818152602001828054600181600116156101000203166002900480156103a35780601f10610378576101008083540402835291602001916103a3565b820191906000526020600020905b81548152906001019060200180831161038657829003601f168201915b50505050509050919050565b60606000826040516103c19190610931565b9081526020016040518091039020805480602002602001604051908101604052809291908181526020016000905b828210156105655783829060005260206000209060020201604051806040016040529081600082018054600181600116156101000203166002900480601f0160208091040260200160405190810160405280929190818152602001828054600181600116156101000203166002900480156104ab5780601f10610480576101008083540402835291602001916104ab565b820191906000526020600020905b81548152906001019060200180831161048e57829003601f168201915b50505050508152602001600182018054600181600116156101000203166002900480601f01602080910402602001604051908101604052809291908181526020018280546001816001161561010002031660029004801561054d5780601f106105225761010080835404028352916020019161054d565b820191906000526020600020905b81548152906001019060200180831161053057829003601f168201915b505050505081525050815260200190600101906103ef565b505050509050919050565b828054600181600116156101000203166002900490600052602060002090601f016020900481019282601f106105b157805160ff19168380011785556105df565b828001600101855582156105df579182015b828111156105de5782518255916020019190600101906105c3565b5b5090506105ec9190610670565b5090565b828054600181600116156101000203166002900490600052602060002090601f016020900481019282601f1061063157805160ff191683800117855561065f565b8280016001018555821561065f579182015b8281111561065e578251825591602001919060010190610643565b5b50905061066c9190610670565b5090565b61069291905b8082111561068e576000816000905550600101610676565b5090565b90565b600082601f8301126106a657600080fd5b81356106b96106b4826109b9565b61098c565b915080825260208301602083018583830111156106d557600080fd5b6106e0838284610a61565b50505092915050565b6000602082840312156106fb57600080fd5b600082013567ffffffffffffffff81111561071557600080fd5b61072184828501610695565b91505092915050565b60008060006060848603121561073f57600080fd5b600084013567ffffffffffffffff81111561075957600080fd5b61076586828701610695565b935050602084013567ffffffffffffffff81111561078257600080fd5b61078e86828701610695565b925050604084013567ffffffffffffffff8111156107ab57600080fd5b6107b786828701610695565b9150509250925092565b60006107cd83836108ed565b905092915050565b60006107e0826109f5565b6107ea8185610a23565b9350836020820285016107fc856109e5565b8060005b85811015610838578484038952815161081985826107c1565b945061082483610a16565b925060208a01995050600181019050610800565b50829750879550505050505092915050565b600061085582610a0b565b61085f8185610a45565b935061086f818560208601610a70565b61087881610aa3565b840191505092915050565b600061088e82610a0b565b6108988185610a56565b93506108a8818560208601610a70565b80840191505092915050565b60006108bf82610a00565b6108c98185610a34565b93506108d9818560208601610a70565b6108e281610aa3565b840191505092915050565b6000604083016000830151848203600086015261090a82826108b4565b9150506020830151848203602086015261092482826108b4565b9150508091505092915050565b600061093d8284610883565b915081905092915050565b6000602082019050818103600083015261096281846107d5565b905092915050565b60006020820190508181036000830152610984818461084a565b905092915050565b6000604051905081810181811067ffffffffffffffff821117156109af57600080fd5b8060405250919050565b600067ffffffffffffffff8211156109d057600080fd5b601f19601f8301169050602081019050919050565b6000819050602082019050919050565b600081519050919050565b600081519050919050565b600081519050919050565b6000602082019050919050565b600082825260208201905092915050565b600082825260208201905092915050565b600082825260208201905092915050565b600081905092915050565b82818337600083830152505050565b60005b83811015610a8e578082015181840152602081019050610a73565b83811115610a9d576000848401525b50505050565b6000601f19601f830116905091905056fea365627a7a72315820ad97f72d4c1ee7e058c98c5a0154a76d96ddac31029223c01bcaa6b9aa48142e6c6578706572696d656e74616cf564736f6c63430005100040",
  "source": "// SPDX-License-Identifier: MIT\r\npragma solidity >0.5.11;\r\npragma experimental ABIEncoderV2;\r\n\r\ncontract CryptoDrive{\r\n    // Structure for storing the filehash,filename as File \r\n    \r\n    struct File{\r\n        string filehash;\r\n        string filename;\r\n    }\r\n    \r\n    // Mapping for Storing user id as string and File Structure array as value\r\n    // Mapping is private\r\n    \r\n    mapping(string=>File[]) private FileHashes;\r\n    mapping(string=>string) private PassHash;\r\n    mapping(string=>string) private PublicKeys;\r\n    \r\n    // Function AddFileHash which takes user id , filehash , filename\r\n    // It is pushes the structure in Filehash Mapping\r\n    \r\n    function AddFileHash(string memory user_id,string memory filehash,string memory filename) public {\r\n        FileHashes[user_id].push(File(filehash,filename));\r\n    }\r\n    \r\n    // Function GetFilehash which takes the user id \r\n    // It will return the struct array\r\n    \r\n    function GetFilehash(string memory user_id) public view returns (File[] memory){\r\n        return FileHashes[user_id];\r\n    }\r\n    \r\n    // Funtion to Save the user id , pass hash, public keys in the different mappings while SignUp\r\n    \r\n    function SignUp(string memory user_id,string memory pass_hash,string memory public_keys) public{\r\n        PassHash[user_id]=pass_hash;\r\n        PublicKeys[user_id]=public_keys;\r\n    }\r\n    \r\n    // Function to GetPassHash which takes user id as input and returns PassHash which is saved earlier\r\n    \r\n    function GetPassHash(string memory user_id) public view returns (string memory){\r\n        return PassHash[user_id];\r\n    }\r\n    \r\n    // Function to get public keys for a particular input user id\r\n    \r\n    function getPublicKey(string memory user_id) public view returns (string memory){\r\n        return PublicKeys[user_id];\r\n    }\r\n    \r\n    \r\n    \r\n}\r\n\r\n",
  "sourcePath": "C:/Users/ASUS/Desktop/CryptoDrive/client/src/smart_contracts/contracts/CryptoDrive.sol",
  "compiler": {
    "name": "solc",
    "version": "0.5.16+commit.9c3226ce.Emscripten.clang"
  },
  "schemaVersion": "3.3.4",
  "updatedAt": "2021-03-25T09:11:38.086Z",
  "devdoc": {
    "methods": {}
  },
  "userdoc": {
    "methods": {}
  }
}