{
  "contractName": "CryptoDrive",
  "abi": [
    {
      "constant": false,
      "inputs": [
        {
          "internalType": "string",
          "name": "user_id",
          "type": "string"
        },
        {
          "internalType": "string",
          "name": "filehash",
          "type": "string"
        },
        {
          "internalType": "string",
          "name": "filename",
          "type": "string"
        }
      ],
      "name": "AddFileHash",
      "outputs": [],
      "payable": false,
      "stateMutability": "nonpayable",
      "type": "function"
    },
    {
      "constant": true,
      "inputs": [
        {
          "internalType": "string",
          "name": "user_id",
          "type": "string"
        }
      ],
      "name": "GetFilehash",
      "outputs": [
        {
          "components": [
            {
              "internalType": "string",
              "name": "filehash",
              "type": "string"
            },
            {
              "internalType": "string",
              "name": "filename",
              "type": "string"
            }
          ],
          "internalType": "struct CryptoDrive.File[]",
          "name": "",
          "type": "tuple[]"
        }
      ],
      "payable": false,
      "stateMutability": "view",
      "type": "function"
    }
  ],
  "bytecode": "0x608060405234801561001057600080fd5b50610783806100206000396000f3fe608060405234801561001057600080fd5b50600436106100365760003560e01c8063146f46d31461003b578063cdaa3abf14610057575b600080fd5b61005560048036036100509190810190610422565b610087565b005b610071600480360361006c91908101906103e1565b610127565b60405161007e9190610607565b60405180910390f35b60008360405161009791906105f0565b90815260200160405180910390206040518060400160405280848152602001838152509080600181540180825580915050906001820390600052602060002090600202016000909192909190915060008201518160000190805190602001906101019291906102e8565b50602082015181600101908051906020019061011e9291906102e8565b50505050505050565b606060008260405161013991906105f0565b9081526020016040518091039020805480602002602001604051908101604052809291908181526020016000905b828210156102dd5783829060005260206000209060020201604051806040016040529081600082018054600181600116156101000203166002900480601f0160208091040260200160405190810160405280929190818152602001828054600181600116156101000203166002900480156102235780601f106101f857610100808354040283529160200191610223565b820191906000526020600020905b81548152906001019060200180831161020657829003601f168201915b50505050508152602001600182018054600181600116156101000203166002900480601f0160208091040260200160405190810160405280929190818152602001828054600181600116156101000203166002900480156102c55780601f1061029a576101008083540402835291602001916102c5565b820191906000526020600020905b8154815290600101906020018083116102a857829003601f168201915b50505050508152505081526020019060010190610167565b505050509050919050565b828054600181600116156101000203166002900490600052602060002090601f016020900481019282601f1061032957805160ff1916838001178555610357565b82800160010185558215610357579182015b8281111561035657825182559160200191906001019061033b565b5b5090506103649190610368565b5090565b61038a91905b8082111561038657600081600090555060010161036e565b5090565b90565b600082601f83011261039e57600080fd5b81356103b16103ac82610656565b610629565b915080825260208301602083018583830111156103cd57600080fd5b6103d88382846106ed565b50505092915050565b6000602082840312156103f357600080fd5b600082013567ffffffffffffffff81111561040d57600080fd5b6104198482850161038d565b91505092915050565b60008060006060848603121561043757600080fd5b600084013567ffffffffffffffff81111561045157600080fd5b61045d8682870161038d565b935050602084013567ffffffffffffffff81111561047a57600080fd5b6104868682870161038d565b925050604084013567ffffffffffffffff8111156104a357600080fd5b6104af8682870161038d565b9150509250925092565b60006104c583836105ac565b905092915050565b60006104d882610692565b6104e281856106c0565b9350836020820285016104f485610682565b8060005b85811015610530578484038952815161051185826104b9565b945061051c836106b3565b925060208a019950506001810190506104f8565b50829750879550505050505092915050565b600061054d826106a8565b61055781856106e2565b93506105678185602086016106fc565b80840191505092915050565b600061057e8261069d565b61058881856106d1565b93506105988185602086016106fc565b6105a18161072f565b840191505092915050565b600060408301600083015184820360008601526105c98282610573565b915050602083015184820360208601526105e38282610573565b9150508091505092915050565b60006105fc8284610542565b915081905092915050565b6000602082019050818103600083015261062181846104cd565b905092915050565b6000604051905081810181811067ffffffffffffffff8211171561064c57600080fd5b8060405250919050565b600067ffffffffffffffff82111561066d57600080fd5b601f19601f8301169050602081019050919050565b6000819050602082019050919050565b600081519050919050565b600081519050919050565b600081519050919050565b6000602082019050919050565b600082825260208201905092915050565b600082825260208201905092915050565b600081905092915050565b82818337600083830152505050565b60005b8381101561071a5780820151818401526020810190506106ff565b83811115610729576000848401525b50505050565b6000601f19601f830116905091905056fea365627a7a7231582037449b682266285b13382fe06bf8d781a0b20b09915b823f6a48c0c7d63e6b9c6c6578706572696d656e74616cf564736f6c63430005100040",
  "source": "// SPDX-License-Identifier: MIT\r\npragma solidity >0.5.11;\r\npragma experimental ABIEncoderV2;\r\n\r\ncontract CryptoDrive{\r\n    // Structure for storing the filehash,filename as File \r\n    \r\n    struct File{\r\n        string filehash;\r\n        string filename;\r\n    }\r\n    \r\n    // Mapping for Storing user id as string and File Structure array as value\r\n    // Mapping is private\r\n    \r\n    mapping(string=>File[]) private FileHashes;\r\n    \r\n    // Function AddFileHash which takes user id , filehash , filename\r\n    // It is pushes the structure in Filehash Mapping\r\n    \r\n    function AddFileHash(string memory user_id,string memory filehash,string memory filename) public {\r\n        FileHashes[user_id].push(File(filehash,filename));\r\n    }\r\n    \r\n    // Function GetFilehash which takes the user id \r\n    // It will return the struct array\r\n    \r\n    function GetFilehash(string memory user_id) public view returns (File[] memory){\r\n        return FileHashes[user_id];\r\n    }\r\n    \r\n    \r\n}\r\n\r\n",
  "sourcePath": "C:/Users/ASUS/Desktop/CryptoDrive/client/src/smart_contracts/contracts/CryptoDrive.sol",
  "compiler": {
    "name": "solc",
    "version": "0.5.16+commit.9c3226ce.Emscripten.clang"
  },
  "schemaVersion": "3.3.4",
  "updatedAt": "2021-03-25T06:57:42.009Z",
  "networkType": "ethereum",
  "devdoc": {
    "methods": {}
  },
  "userdoc": {
    "methods": {}
  }
}