{
  "contractName": "CryptoDrive",
  "abi": [
    {
      "constant": true,
      "inputs": [
        {
          "internalType": "string",
          "name": "user_id",
          "type": "string"
        }
      ],
      "name": "checkUser",
      "outputs": [
        {
          "internalType": "bool",
          "name": "",
          "type": "bool"
        }
      ],
      "payable": false,
      "stateMutability": "view",
      "type": "function"
    },
    {
      "constant": false,
      "inputs": [
        {
          "internalType": "string",
          "name": "user_id",
          "type": "string"
        },
        {
          "internalType": "string",
          "name": "filehash",
          "type": "string"
        },
        {
          "internalType": "string",
          "name": "filename",
          "type": "string"
        }
      ],
      "name": "AddFileHash",
      "outputs": [],
      "payable": false,
      "stateMutability": "nonpayable",
      "type": "function"
    },
    {
      "constant": true,
      "inputs": [
        {
          "internalType": "string",
          "name": "user_id",
          "type": "string"
        }
      ],
      "name": "GetFilehash",
      "outputs": [
        {
          "components": [
            {
              "internalType": "string",
              "name": "filehash",
              "type": "string"
            },
            {
              "internalType": "string",
              "name": "filename",
              "type": "string"
            }
          ],
          "internalType": "struct CryptoDrive.File[]",
          "name": "",
          "type": "tuple[]"
        }
      ],
      "payable": false,
      "stateMutability": "view",
      "type": "function"
    },
    {
      "constant": false,
      "inputs": [
        {
          "internalType": "string",
          "name": "user_id",
          "type": "string"
        },
        {
          "internalType": "string",
          "name": "pass_hash",
          "type": "string"
        },
        {
          "internalType": "string",
          "name": "public_keys",
          "type": "string"
        }
      ],
      "name": "SignUp",
      "outputs": [],
      "payable": false,
      "stateMutability": "nonpayable",
      "type": "function"
    },
    {
      "constant": true,
      "inputs": [
        {
          "internalType": "string",
          "name": "user_id",
          "type": "string"
        }
      ],
      "name": "GetPassHash",
      "outputs": [
        {
          "internalType": "string",
          "name": "",
          "type": "string"
        }
      ],
      "payable": false,
      "stateMutability": "view",
      "type": "function"
    },
    {
      "constant": true,
      "inputs": [
        {
          "internalType": "string",
          "name": "user_id",
          "type": "string"
        }
      ],
      "name": "getPublicKey",
      "outputs": [
        {
          "internalType": "string",
          "name": "",
          "type": "string"
        }
      ],
      "payable": false,
      "stateMutability": "view",
      "type": "function"
    },
    {
      "constant": false,
      "inputs": [
        {
          "internalType": "string",
          "name": "user_id",
          "type": "string"
        },
        {
          "components": [
            {
              "internalType": "string",
              "name": "filehash",
              "type": "string"
            },
            {
              "internalType": "string",
              "name": "filename",
              "type": "string"
            },
            {
              "internalType": "string",
              "name": "sender",
              "type": "string"
            }
          ],
          "internalType": "struct CryptoDrive.ShareFile[]",
          "name": "shareFiles",
          "type": "tuple[]"
        }
      ],
      "name": "AddShareFile",
      "outputs": [],
      "payable": false,
      "stateMutability": "nonpayable",
      "type": "function"
    },
    {
      "constant": true,
      "inputs": [
        {
          "internalType": "string",
          "name": "user_id",
          "type": "string"
        }
      ],
      "name": "GetShareDetails",
      "outputs": [
        {
          "components": [
            {
              "internalType": "string",
              "name": "filehash",
              "type": "string"
            },
            {
              "internalType": "string",
              "name": "filename",
              "type": "string"
            },
            {
              "internalType": "string",
              "name": "sender",
              "type": "string"
            }
          ],
          "internalType": "struct CryptoDrive.ShareFile[]",
          "name": "",
          "type": "tuple[]"
        }
      ],
      "payable": false,
      "stateMutability": "view",
      "type": "function"
    }
  ],
  "bytecode": "0x608060405234801561001057600080fd5b5061135e806100206000396000f3fe608060405234801561001057600080fd5b50600436106100885760003560e01c80636636d3751161005b5780636636d375146101395780637075849814610155578063bff9082114610171578063cdaa3abf146101a157610088565b80630bd141031461008d578063146f46d3146100bd57806317fafb0f146100d95780631eb41b7114610109575b600080fd5b6100a760048036036100a29190810190610d18565b6101d1565b6040516100b49190611138565b60405180910390f35b6100d760048036036100d29190810190610dc5565b610291565b005b6100f360048036036100ee9190810190610d18565b610331565b60405161010091906110fb565b60405180910390f35b610123600480360361011e9190810190610d18565b610594565b604051610130919061111d565b60405180910390f35b610153600480360361014e9190810190610d59565b610621565b005b61016f600480360361016a9190810190610dc5565b610743565b005b61018b60048036036101869190810190610d18565b6107ae565b6040516101989190611138565b60405180910390f35b6101bb60048036036101b69190810190610d18565b61086e565b6040516101c891906110d9565b60405180910390f35b60606001826040516101e391906110c2565b90815260200160405180910390208054600181600116156101000203166002900480601f0160208091040260200160405190810160405280929190818152602001828054600181600116156101000203166002900480156102855780601f1061025a57610100808354040283529160200191610285565b820191906000526020600020905b81548152906001019060200180831161026857829003601f168201915b50505050509050919050565b6000836040516102a191906110c2565b908152602001604051809103902060405180604001604052808481526020018381525090806001815401808255809150509060018203906000526020600020906002020160009091929091909150600082015181600001908051906020019061030b929190610a2f565b506020820151816001019080519060200190610328929190610a2f565b50505050505050565b606060038260405161034391906110c2565b9081526020016040518091039020805480602002602001604051908101604052809291908181526020016000905b828210156105895783829060005260206000209060030201604051806060016040529081600082018054600181600116156101000203166002900480601f01602080910402602001604051908101604052809291908181526020018280546001816001161561010002031660029004801561042d5780601f106104025761010080835404028352916020019161042d565b820191906000526020600020905b81548152906001019060200180831161041057829003601f168201915b50505050508152602001600182018054600181600116156101000203166002900480601f0160208091040260200160405190810160405280929190818152602001828054600181600116156101000203166002900480156104cf5780601f106104a4576101008083540402835291602001916104cf565b820191906000526020600020905b8154815290600101906020018083116104b257829003601f168201915b50505050508152602001600282018054600181600116156101000203166002900480601f0160208091040260200160405190810160405280929190818152602001828054600181600116156101000203166002900480156105715780601f1061054657610100808354040283529160200191610571565b820191906000526020600020905b81548152906001019060200180831161055457829003601f168201915b50505050508152505081526020019060010190610371565b505050509050919050565b6000806001836040516105a791906110c2565b9081526020016040518091039020805460018160011615610100020316600290049050118015610609575060006002836040516105e491906110c2565b9081526020016040518091039020805460018160011615610100020316600290049050115b15610617576001905061061c565b600090505b919050565b60008090505b815181101561073e5760038360405161064091906110c2565b9081526020016040518091039020604051806060016040528084848151811061066557fe5b602002602001015160000151815260200184848151811061068257fe5b602002602001015160200151815260200184848151811061069f57fe5b6020026020010151604001518152509080600181540180825580915050906001820390600052602060002090600302016000909192909190915060008201518160000190805190602001906106f5929190610a2f565b506020820151816001019080519060200190610712929190610a2f565b50604082015181600201908051906020019061072f929190610a2f565b50505050600181019050610627565b505050565b8160018460405161075491906110c2565b90815260200160405180910390209080519060200190610775929190610aaf565b508060028460405161078791906110c2565b908152602001604051809103902090805190602001906107a8929190610aaf565b50505050565b60606002826040516107c091906110c2565b90815260200160405180910390208054600181600116156101000203166002900480601f0160208091040260200160405190810160405280929190818152602001828054600181600116156101000203166002900480156108625780601f1061083757610100808354040283529160200191610862565b820191906000526020600020905b81548152906001019060200180831161084557829003601f168201915b50505050509050919050565b606060008260405161088091906110c2565b9081526020016040518091039020805480602002602001604051908101604052809291908181526020016000905b82821015610a245783829060005260206000209060020201604051806040016040529081600082018054600181600116156101000203166002900480601f01602080910402602001604051908101604052809291908181526020018280546001816001161561010002031660029004801561096a5780601f1061093f5761010080835404028352916020019161096a565b820191906000526020600020905b81548152906001019060200180831161094d57829003601f168201915b50505050508152602001600182018054600181600116156101000203166002900480601f016020809104026020016040519081016040528092919081815260200182805460018160011615610100020316600290048015610a0c5780601f106109e157610100808354040283529160200191610a0c565b820191906000526020600020905b8154815290600101906020018083116109ef57829003601f168201915b505050505081525050815260200190600101906108ae565b505050509050919050565b828054600181600116156101000203166002900490600052602060002090601f016020900481019282601f10610a7057805160ff1916838001178555610a9e565b82800160010185558215610a9e579182015b82811115610a9d578251825591602001919060010190610a82565b5b509050610aab9190610b2f565b5090565b828054600181600116156101000203166002900490600052602060002090601f016020900481019282601f10610af057805160ff1916838001178555610b1e565b82800160010185558215610b1e579182015b82811115610b1d578251825591602001919060010190610b02565b5b509050610b2b9190610b2f565b5090565b610b5191905b80821115610b4d576000816000905550600101610b35565b5090565b90565b600082601f830112610b6557600080fd5b8135610b78610b7382611187565b61115a565b9150818183526020840193506020810190508360005b83811015610bbe5781358601610ba48882610c70565b845260208401935060208301925050600181019050610b8e565b5050505092915050565b600082601f830112610bd957600080fd5b8135610bec610be7826111af565b61115a565b91508082526020830160208301858383011115610c0857600080fd5b610c138382846112c8565b50505092915050565b600082601f830112610c2d57600080fd5b8135610c40610c3b826111db565b61115a565b91508082526020830160208301858383011115610c5c57600080fd5b610c678382846112c8565b50505092915050565b600060608284031215610c8257600080fd5b610c8c606061115a565b9050600082013567ffffffffffffffff811115610ca857600080fd5b610cb484828501610bc8565b600083015250602082013567ffffffffffffffff811115610cd457600080fd5b610ce084828501610bc8565b602083015250604082013567ffffffffffffffff811115610d0057600080fd5b610d0c84828501610bc8565b60408301525092915050565b600060208284031215610d2a57600080fd5b600082013567ffffffffffffffff811115610d4457600080fd5b610d5084828501610c1c565b91505092915050565b60008060408385031215610d6c57600080fd5b600083013567ffffffffffffffff811115610d8657600080fd5b610d9285828601610c1c565b925050602083013567ffffffffffffffff811115610daf57600080fd5b610dbb85828601610b54565b9150509250929050565b600080600060608486031215610dda57600080fd5b600084013567ffffffffffffffff811115610df457600080fd5b610e0086828701610c1c565b935050602084013567ffffffffffffffff811115610e1d57600080fd5b610e2986828701610c1c565b925050604084013567ffffffffffffffff811115610e4657600080fd5b610e5286828701610c1c565b9150509250925092565b6000610e688383611020565b905092915050565b6000610e7c8383611064565b905092915050565b6000610e8f82611227565b610e99818561126d565b935083602082028501610eab85611207565b8060005b85811015610ee75784840389528151610ec88582610e5c565b9450610ed383611253565b925060208a01995050600181019050610eaf565b50829750879550505050505092915050565b6000610f0482611232565b610f0e818561127e565b935083602082028501610f2085611217565b8060005b85811015610f5c5784840389528151610f3d8582610e70565b9450610f4883611260565b925060208a01995050600181019050610f24565b50829750879550505050505092915050565b610f77816112bc565b82525050565b6000610f8882611248565b610f9281856112a0565b9350610fa28185602086016112d7565b610fab8161130a565b840191505092915050565b6000610fc182611248565b610fcb81856112b1565b9350610fdb8185602086016112d7565b80840191505092915050565b6000610ff28261123d565b610ffc818561128f565b935061100c8185602086016112d7565b6110158161130a565b840191505092915050565b6000604083016000830151848203600086015261103d8282610fe7565b915050602083015184820360208601526110578282610fe7565b9150508091505092915050565b600060608301600083015184820360008601526110818282610fe7565b9150506020830151848203602086015261109b8282610fe7565b915050604083015184820360408601526110b58282610fe7565b9150508091505092915050565b60006110ce8284610fb6565b915081905092915050565b600060208201905081810360008301526110f38184610e84565b905092915050565b600060208201905081810360008301526111158184610ef9565b905092915050565b60006020820190506111326000830184610f6e565b92915050565b600060208201905081810360008301526111528184610f7d565b905092915050565b6000604051905081810181811067ffffffffffffffff8211171561117d57600080fd5b8060405250919050565b600067ffffffffffffffff82111561119e57600080fd5b602082029050602081019050919050565b600067ffffffffffffffff8211156111c657600080fd5b601f19601f8301169050602081019050919050565b600067ffffffffffffffff8211156111f257600080fd5b601f19601f8301169050602081019050919050565b6000819050602082019050919050565b6000819050602082019050919050565b600081519050919050565b600081519050919050565b600081519050919050565b600081519050919050565b6000602082019050919050565b6000602082019050919050565b600082825260208201905092915050565b600082825260208201905092915050565b600082825260208201905092915050565b600082825260208201905092915050565b600081905092915050565b60008115159050919050565b82818337600083830152505050565b60005b838110156112f55780820151818401526020810190506112da565b83811115611304576000848401525b50505050565b6000601f19601f830116905091905056fea365627a7a723158207917c921dd0549697e3b0a61c79d5e9bb0c9be9791476eb1ffed3a05cb5abdbd6c6578706572696d656e74616cf564736f6c634300050b0040",
  "source": "// SPDX-License-Identifier: MIT\r\npragma solidity >=0.5.11;\r\npragma experimental ABIEncoderV2;\r\n\r\ncontract CryptoDrive{\r\n    // Structure for storing the filehash,filename as File \r\n    \r\n    struct File{\r\n        string filehash;\r\n        string filename;\r\n    }\r\n    \r\n    // Structure for storing the filehash,filename,sender user_id as ShareFile \r\n    \r\n    struct ShareFile{\r\n        string filehash;\r\n        string filename;\r\n        string sender;\r\n    }\r\n    \r\n    \r\n    // Mapping for Storing user id as string and File Structure array as value\r\n    // Mapping is private\r\n    \r\n    mapping(string=>File[]) private FileHashes;\r\n    mapping(string=>string) private PassHash;\r\n    mapping(string=>string) private PublicKeys;\r\n    mapping(string=>ShareFile[]) private SharedData;\r\n    \r\n    \r\n    // Function CheckUser to check whether the user id exist in the database\r\n    // It checks the key is present or not based on the byte length for each map key value\r\n    \r\n    function checkUser(string memory user_id) public view returns(bool){\r\n        if(bytes(PassHash[user_id]).length>0 && bytes(PublicKeys[user_id]).length>0){\r\n            return true;\r\n        }\r\n        else{\r\n            return false;\r\n        }\r\n    }\r\n    \r\n    \r\n    // Function AddFileHash which takes user id , filehash , filename\r\n    // It is pushes the structure in Filehash Mapping\r\n    \r\n    function AddFileHash(string memory user_id,string memory filehash,string memory filename) public {\r\n        FileHashes[user_id].push(File(filehash,filename));\r\n    }\r\n    \r\n    // Function GetFilehash which takes the user id \r\n    // It will return the struct array\r\n    \r\n    function GetFilehash(string memory user_id) public view returns (File[] memory){\r\n        return FileHashes[user_id];\r\n    }\r\n    \r\n    // Funtion to Save the user id , pass hash, public keys in the different mappings while SignUp\r\n    \r\n    function SignUp(string memory user_id,string memory pass_hash,string memory public_keys) public{\r\n        PassHash[user_id]=pass_hash;\r\n        PublicKeys[user_id]=public_keys;\r\n    }\r\n    \r\n    // Function to GetPassHash which takes user id as input and returns PassHash which is saved earlier\r\n    \r\n    function GetPassHash(string memory user_id) public view returns (string memory){\r\n        return PassHash[user_id];\r\n    }\r\n    \r\n    // Function to get public keys for a particular input user id\r\n    \r\n    function getPublicKey(string memory user_id) public view returns (string memory){\r\n        return PublicKeys[user_id];\r\n    }\r\n    \r\n    // Function to save the shared data with respective of the receiver \r\n    // The input parameters are user id of receiver , filehash , filename , sender username\r\n    \r\n    function AddShareFile(string memory user_id,ShareFile[] memory shareFiles) public {\r\n        for(uint i =0; i< shareFiles.length ; i=i+1){\r\n        SharedData[user_id].push(ShareFile(shareFiles[i].filehash,shareFiles[i].filename,shareFiles[i].sender));\r\n        }\r\n    }\r\n    \r\n    \r\n    // function to get the details of shared files for given receiver user id\r\n    \r\n    function GetShareDetails(string memory user_id) public view returns (ShareFile[] memory){\r\n        return SharedData[user_id];\r\n    }\r\n    \r\n    \r\n    \r\n}",
  "sourcePath": "C:/Users/ASUS/Desktop/CryptoDrive/smart_contracts/contracts/CryptoDrive.sol",
  "compiler": {
    "name": "solc",
    "version": "0.5.11+commit.c082d0b4.Emscripten.clang"
  },
  "schemaVersion": "3.3.4",
  "updatedAt": "2021-04-07T15:07:36.008Z",
  "networkType": "ethereum",
  "devdoc": {
    "methods": {}
  },
  "userdoc": {
    "methods": {}
  }
}