{
  "contractName": "CryptoDrive",
  "abi": [
    {
      "constant": false,
      "inputs": [
        {
          "internalType": "string",
          "name": "user_id",
          "type": "string"
        },
        {
          "internalType": "string",
          "name": "filehash",
          "type": "string"
        },
        {
          "internalType": "string",
          "name": "filename",
          "type": "string"
        }
      ],
      "name": "AddFileHash",
      "outputs": [],
      "payable": false,
      "stateMutability": "nonpayable",
      "type": "function"
    },
    {
      "constant": true,
      "inputs": [
        {
          "internalType": "string",
          "name": "user_id",
          "type": "string"
        }
      ],
      "name": "GetFilehash",
      "outputs": [
        {
          "components": [
            {
              "internalType": "string",
              "name": "filehash",
              "type": "string"
            },
            {
              "internalType": "string",
              "name": "filename",
              "type": "string"
            }
          ],
          "internalType": "struct CryptoDrive.File[]",
          "name": "",
          "type": "tuple[]"
        }
      ],
      "payable": false,
      "stateMutability": "view",
      "type": "function"
    },
    {
      "constant": false,
      "inputs": [
        {
          "internalType": "string",
          "name": "user_id",
          "type": "string"
        },
        {
          "internalType": "string",
          "name": "pass_hash",
          "type": "string"
        },
        {
          "internalType": "string",
          "name": "public_keys",
          "type": "string"
        }
      ],
      "name": "SignUp",
      "outputs": [],
      "payable": false,
      "stateMutability": "nonpayable",
      "type": "function"
    },
    {
      "constant": true,
      "inputs": [
        {
          "internalType": "string",
          "name": "user_id",
          "type": "string"
        }
      ],
      "name": "GetPassHash",
      "outputs": [
        {
          "internalType": "string",
          "name": "",
          "type": "string"
        }
      ],
      "payable": false,
      "stateMutability": "view",
      "type": "function"
    },
    {
      "constant": true,
      "inputs": [
        {
          "internalType": "string",
          "name": "user_id",
          "type": "string"
        }
      ],
      "name": "getPublicKey",
      "outputs": [
        {
          "internalType": "string",
          "name": "",
          "type": "string"
        }
      ],
      "payable": false,
      "stateMutability": "view",
      "type": "function"
    },
    {
      "constant": false,
      "inputs": [
        {
          "internalType": "string",
          "name": "user_id",
          "type": "string"
        },
        {
          "components": [
            {
              "internalType": "string",
              "name": "filehash",
              "type": "string"
            },
            {
              "internalType": "string",
              "name": "filename",
              "type": "string"
            },
            {
              "internalType": "string",
              "name": "sender",
              "type": "string"
            }
          ],
          "internalType": "struct CryptoDrive.ShareFile[]",
          "name": "shareFiles",
          "type": "tuple[]"
        }
      ],
      "name": "AddShareFile",
      "outputs": [],
      "payable": false,
      "stateMutability": "nonpayable",
      "type": "function"
    },
    {
      "constant": true,
      "inputs": [
        {
          "internalType": "string",
          "name": "user_id",
          "type": "string"
        }
      ],
      "name": "GetShareDetails",
      "outputs": [
        {
          "components": [
            {
              "internalType": "string",
              "name": "filehash",
              "type": "string"
            },
            {
              "internalType": "string",
              "name": "filename",
              "type": "string"
            },
            {
              "internalType": "string",
              "name": "sender",
              "type": "string"
            }
          ],
          "internalType": "struct CryptoDrive.ShareFile[]",
          "name": "",
          "type": "tuple[]"
        }
      ],
      "payable": false,
      "stateMutability": "view",
      "type": "function"
    }
  ],
  "bytecode": "0x608060405234801561001057600080fd5b50611260806100206000396000f3fe608060405234801561001057600080fd5b506004361061007d5760003560e01c80636636d3751161005b5780636636d375146100fe578063707584981461011a578063bff9082114610136578063cdaa3abf146101665761007d565b80630bd1410314610082578063146f46d3146100b257806317fafb0f146100ce575b600080fd5b61009c60048036036100979190810190610c50565b610196565b6040516100a99190611046565b60405180910390f35b6100cc60048036036100c79190810190610cfd565b610256565b005b6100e860048036036100e39190810190610c50565b6102f6565b6040516100f59190611024565b60405180910390f35b61011860048036036101139190810190610c91565b610559565b005b610134600480360361012f9190810190610cfd565b61067b565b005b610150600480360361014b9190810190610c50565b6106e6565b60405161015d9190611046565b60405180910390f35b610180600480360361017b9190810190610c50565b6107a6565b60405161018d9190611002565b60405180910390f35b60606001826040516101a89190610feb565b90815260200160405180910390208054600181600116156101000203166002900480601f01602080910402602001604051908101604052809291908181526020018280546001816001161561010002031660029004801561024a5780601f1061021f5761010080835404028352916020019161024a565b820191906000526020600020905b81548152906001019060200180831161022d57829003601f168201915b50505050509050919050565b6000836040516102669190610feb565b90815260200160405180910390206040518060400160405280848152602001838152509080600181540180825580915050906001820390600052602060002090600202016000909192909190915060008201518160000190805190602001906102d0929190610967565b5060208201518160010190805190602001906102ed929190610967565b50505050505050565b60606003826040516103089190610feb565b9081526020016040518091039020805480602002602001604051908101604052809291908181526020016000905b8282101561054e5783829060005260206000209060030201604051806060016040529081600082018054600181600116156101000203166002900480601f0160208091040260200160405190810160405280929190818152602001828054600181600116156101000203166002900480156103f25780601f106103c7576101008083540402835291602001916103f2565b820191906000526020600020905b8154815290600101906020018083116103d557829003601f168201915b50505050508152602001600182018054600181600116156101000203166002900480601f0160208091040260200160405190810160405280929190818152602001828054600181600116156101000203166002900480156104945780601f1061046957610100808354040283529160200191610494565b820191906000526020600020905b81548152906001019060200180831161047757829003601f168201915b50505050508152602001600282018054600181600116156101000203166002900480601f0160208091040260200160405190810160405280929190818152602001828054600181600116156101000203166002900480156105365780601f1061050b57610100808354040283529160200191610536565b820191906000526020600020905b81548152906001019060200180831161051957829003601f168201915b50505050508152505081526020019060010190610336565b505050509050919050565b60008090505b8151811015610676576003836040516105789190610feb565b9081526020016040518091039020604051806060016040528084848151811061059d57fe5b60200260200101516000015181526020018484815181106105ba57fe5b60200260200101516020015181526020018484815181106105d757fe5b60200260200101516040015181525090806001815401808255809150509060018203906000526020600020906003020160009091929091909150600082015181600001908051906020019061062d929190610967565b50602082015181600101908051906020019061064a929190610967565b506040820151816002019080519060200190610667929190610967565b5050505060018101905061055f565b505050565b8160018460405161068c9190610feb565b908152602001604051809103902090805190602001906106ad9291906109e7565b50806002846040516106bf9190610feb565b908152602001604051809103902090805190602001906106e09291906109e7565b50505050565b60606002826040516106f89190610feb565b90815260200160405180910390208054600181600116156101000203166002900480601f01602080910402602001604051908101604052809291908181526020018280546001816001161561010002031660029004801561079a5780601f1061076f5761010080835404028352916020019161079a565b820191906000526020600020905b81548152906001019060200180831161077d57829003601f168201915b50505050509050919050565b60606000826040516107b89190610feb565b9081526020016040518091039020805480602002602001604051908101604052809291908181526020016000905b8282101561095c5783829060005260206000209060020201604051806040016040529081600082018054600181600116156101000203166002900480601f0160208091040260200160405190810160405280929190818152602001828054600181600116156101000203166002900480156108a25780601f10610877576101008083540402835291602001916108a2565b820191906000526020600020905b81548152906001019060200180831161088557829003601f168201915b50505050508152602001600182018054600181600116156101000203166002900480601f0160208091040260200160405190810160405280929190818152602001828054600181600116156101000203166002900480156109445780601f1061091957610100808354040283529160200191610944565b820191906000526020600020905b81548152906001019060200180831161092757829003601f168201915b505050505081525050815260200190600101906107e6565b505050509050919050565b828054600181600116156101000203166002900490600052602060002090601f016020900481019282601f106109a857805160ff19168380011785556109d6565b828001600101855582156109d6579182015b828111156109d55782518255916020019190600101906109ba565b5b5090506109e39190610a67565b5090565b828054600181600116156101000203166002900490600052602060002090601f016020900481019282601f10610a2857805160ff1916838001178555610a56565b82800160010185558215610a56579182015b82811115610a55578251825591602001919060010190610a3a565b5b509050610a639190610a67565b5090565b610a8991905b80821115610a85576000816000905550600101610a6d565b5090565b90565b600082601f830112610a9d57600080fd5b8135610ab0610aab82611095565b611068565b9150818183526020840193506020810190508360005b83811015610af65781358601610adc8882610ba8565b845260208401935060208301925050600181019050610ac6565b5050505092915050565b600082601f830112610b1157600080fd5b8135610b24610b1f826110bd565b611068565b91508082526020830160208301858383011115610b4057600080fd5b610b4b8382846111ca565b50505092915050565b600082601f830112610b6557600080fd5b8135610b78610b73826110e9565b611068565b91508082526020830160208301858383011115610b9457600080fd5b610b9f8382846111ca565b50505092915050565b600060608284031215610bba57600080fd5b610bc46060611068565b9050600082013567ffffffffffffffff811115610be057600080fd5b610bec84828501610b00565b600083015250602082013567ffffffffffffffff811115610c0c57600080fd5b610c1884828501610b00565b602083015250604082013567ffffffffffffffff811115610c3857600080fd5b610c4484828501610b00565b60408301525092915050565b600060208284031215610c6257600080fd5b600082013567ffffffffffffffff811115610c7c57600080fd5b610c8884828501610b54565b91505092915050565b60008060408385031215610ca457600080fd5b600083013567ffffffffffffffff811115610cbe57600080fd5b610cca85828601610b54565b925050602083013567ffffffffffffffff811115610ce757600080fd5b610cf385828601610a8c565b9150509250929050565b600080600060608486031215610d1257600080fd5b600084013567ffffffffffffffff811115610d2c57600080fd5b610d3886828701610b54565b935050602084013567ffffffffffffffff811115610d5557600080fd5b610d6186828701610b54565b925050604084013567ffffffffffffffff811115610d7e57600080fd5b610d8a86828701610b54565b9150509250925092565b6000610da08383610f49565b905092915050565b6000610db48383610f8d565b905092915050565b6000610dc782611135565b610dd1818561117b565b935083602082028501610de385611115565b8060005b85811015610e1f5784840389528151610e008582610d94565b9450610e0b83611161565b925060208a01995050600181019050610de7565b50829750879550505050505092915050565b6000610e3c82611140565b610e46818561118c565b935083602082028501610e5885611125565b8060005b85811015610e945784840389528151610e758582610da8565b9450610e808361116e565b925060208a01995050600181019050610e5c565b50829750879550505050505092915050565b6000610eb182611156565b610ebb81856111ae565b9350610ecb8185602086016111d9565b610ed48161120c565b840191505092915050565b6000610eea82611156565b610ef481856111bf565b9350610f048185602086016111d9565b80840191505092915050565b6000610f1b8261114b565b610f25818561119d565b9350610f358185602086016111d9565b610f3e8161120c565b840191505092915050565b60006040830160008301518482036000860152610f668282610f10565b91505060208301518482036020860152610f808282610f10565b9150508091505092915050565b60006060830160008301518482036000860152610faa8282610f10565b91505060208301518482036020860152610fc48282610f10565b91505060408301518482036040860152610fde8282610f10565b9150508091505092915050565b6000610ff78284610edf565b915081905092915050565b6000602082019050818103600083015261101c8184610dbc565b905092915050565b6000602082019050818103600083015261103e8184610e31565b905092915050565b600060208201905081810360008301526110608184610ea6565b905092915050565b6000604051905081810181811067ffffffffffffffff8211171561108b57600080fd5b8060405250919050565b600067ffffffffffffffff8211156110ac57600080fd5b602082029050602081019050919050565b600067ffffffffffffffff8211156110d457600080fd5b601f19601f8301169050602081019050919050565b600067ffffffffffffffff82111561110057600080fd5b601f19601f8301169050602081019050919050565b6000819050602082019050919050565b6000819050602082019050919050565b600081519050919050565b600081519050919050565b600081519050919050565b600081519050919050565b6000602082019050919050565b6000602082019050919050565b600082825260208201905092915050565b600082825260208201905092915050565b600082825260208201905092915050565b600082825260208201905092915050565b600081905092915050565b82818337600083830152505050565b60005b838110156111f75780820151818401526020810190506111dc565b83811115611206576000848401525b50505050565b6000601f19601f830116905091905056fea365627a7a7231582065d690bde26228deaf4934c39ed84ddf879b823803357265f39b3a98634154506c6578706572696d656e74616cf564736f6c634300050b0040",
  "source": "// SPDX-License-Identifier: MIT\r\npragma solidity >=0.5.11;\r\npragma experimental ABIEncoderV2;\r\n\r\ncontract CryptoDrive{\r\n    // Structure for storing the filehash,filename as File \r\n    \r\n    struct File{\r\n        string filehash;\r\n        string filename;\r\n    }\r\n    \r\n    // Structure for storing the filehash,filename,sender user_id as ShareFile \r\n    \r\n    struct ShareFile{\r\n        string filehash;\r\n        string filename;\r\n        string sender;\r\n    }\r\n    \r\n    \r\n    // Mapping for Storing user id as string and File Structure array as value\r\n    // Mapping is private\r\n    \r\n    mapping(string=>File[]) private FileHashes;\r\n    mapping(string=>string) private PassHash;\r\n    mapping(string=>string) private PublicKeys;\r\n    mapping(string=>ShareFile[]) private SharedData;\r\n    \r\n    // Function AddFileHash which takes user id , filehash , filename\r\n    // It is pushes the structure in Filehash Mapping\r\n    \r\n    function AddFileHash(string memory user_id,string memory filehash,string memory filename) public {\r\n        FileHashes[user_id].push(File(filehash,filename));\r\n    }\r\n    \r\n    // Function GetFilehash which takes the user id \r\n    // It will return the struct array\r\n    \r\n    function GetFilehash(string memory user_id) public view returns (File[] memory){\r\n        return FileHashes[user_id];\r\n    }\r\n    \r\n    // Funtion to Save the user id , pass hash, public keys in the different mappings while SignUp\r\n    \r\n    function SignUp(string memory user_id,string memory pass_hash,string memory public_keys) public{\r\n        PassHash[user_id]=pass_hash;\r\n        PublicKeys[user_id]=public_keys;\r\n    }\r\n    \r\n    // Function to GetPassHash which takes user id as input and returns PassHash which is saved earlier\r\n    \r\n    function GetPassHash(string memory user_id) public view returns (string memory){\r\n        return PassHash[user_id];\r\n    }\r\n    \r\n    // Function to get public keys for a particular input user id\r\n    \r\n    function getPublicKey(string memory user_id) public view returns (string memory){\r\n        return PublicKeys[user_id];\r\n    }\r\n    \r\n    // Function to save the shared data with respective of the receiver \r\n    // The input parameters are user id of receiver , filehash , filename , sender username\r\n    \r\n    function AddShareFile(string memory user_id,ShareFile[] memory shareFiles) public {\r\n        for(uint i =0; i< shareFiles.length ; i=i+1){\r\n        SharedData[user_id].push(ShareFile(shareFiles[i].filehash,shareFiles[i].filename,shareFiles[i].sender));\r\n        }\r\n    }\r\n    \r\n    \r\n    // function to get the details of shared files for given receiver user id\r\n    \r\n    function GetShareDetails(string memory user_id) public view returns (ShareFile[] memory){\r\n        return SharedData[user_id];\r\n    }\r\n    \r\n    \r\n    \r\n}",
  "sourcePath": "C:/Users/ASUS/Desktop/CryptoDrive/src/smart_contracts/contracts/CryptoDrive.sol",
  "compiler": {
    "name": "solc",
    "version": "0.5.11+commit.c082d0b4.Emscripten.clang"
  },
  "schemaVersion": "3.3.4",
  "updatedAt": "2021-04-04T08:28:23.390Z",
  "networkType": "ethereum",
  "devdoc": {
    "methods": {}
  },
  "userdoc": {
    "methods": {}
  }
}