{
  "contractName": "CryptoDrive",
  "abi": [
    {
      "constant": false,
      "inputs": [
        {
          "internalType": "string",
          "name": "user_id",
          "type": "string"
        },
        {
          "internalType": "string",
          "name": "filehash",
          "type": "string"
        },
        {
          "internalType": "string",
          "name": "filename",
          "type": "string"
        }
      ],
      "name": "AddFileHash",
      "outputs": [],
      "payable": false,
      "stateMutability": "nonpayable",
      "type": "function"
    },
    {
      "constant": true,
      "inputs": [
        {
          "internalType": "string",
          "name": "user_id",
          "type": "string"
        }
      ],
      "name": "GetFilehash",
      "outputs": [
        {
          "components": [
            {
              "internalType": "string",
              "name": "filehash",
              "type": "string"
            },
            {
              "internalType": "string",
              "name": "filename",
              "type": "string"
            }
          ],
          "internalType": "struct CryptoDrive.File[]",
          "name": "",
          "type": "tuple[]"
        }
      ],
      "payable": false,
      "stateMutability": "view",
      "type": "function"
    },
    {
      "constant": false,
      "inputs": [
        {
          "internalType": "string",
          "name": "user_id",
          "type": "string"
        },
        {
          "internalType": "string",
          "name": "pass_hash",
          "type": "string"
        },
        {
          "internalType": "string",
          "name": "public_keys",
          "type": "string"
        }
      ],
      "name": "SignUp",
      "outputs": [],
      "payable": false,
      "stateMutability": "nonpayable",
      "type": "function"
    },
    {
      "constant": true,
      "inputs": [
        {
          "internalType": "string",
          "name": "user_id",
          "type": "string"
        }
      ],
      "name": "GetPassHash",
      "outputs": [
        {
          "internalType": "string",
          "name": "",
          "type": "string"
        }
      ],
      "payable": false,
      "stateMutability": "view",
      "type": "function"
    },
    {
      "constant": true,
      "inputs": [
        {
          "internalType": "string",
          "name": "user_id",
          "type": "string"
        }
      ],
      "name": "getPublicKey",
      "outputs": [
        {
          "internalType": "string",
          "name": "",
          "type": "string"
        }
      ],
      "payable": false,
      "stateMutability": "view",
      "type": "function"
    },
    {
      "constant": false,
      "inputs": [
        {
          "internalType": "string",
          "name": "user_id",
          "type": "string"
        },
        {
          "internalType": "string",
          "name": "filehash",
          "type": "string"
        },
        {
          "internalType": "string",
          "name": "filename",
          "type": "string"
        },
        {
          "internalType": "string",
          "name": "sender",
          "type": "string"
        }
      ],
      "name": "AddShareFile",
      "outputs": [],
      "payable": false,
      "stateMutability": "nonpayable",
      "type": "function"
    },
    {
      "constant": true,
      "inputs": [
        {
          "internalType": "string",
          "name": "user_id",
          "type": "string"
        }
      ],
      "name": "GetShareDetails",
      "outputs": [
        {
          "components": [
            {
              "internalType": "string",
              "name": "filehash",
              "type": "string"
            },
            {
              "internalType": "string",
              "name": "filename",
              "type": "string"
            },
            {
              "internalType": "string",
              "name": "sender",
              "type": "string"
            }
          ],
          "internalType": "struct CryptoDrive.ShareFile[]",
          "name": "",
          "type": "tuple[]"
        }
      ],
      "payable": false,
      "stateMutability": "view",
      "type": "function"
    }
  ],
  "bytecode": "0x608060405234801561001057600080fd5b50611095806100206000396000f3fe608060405234801561001057600080fd5b506004361061007d5760003560e01c8063707584981161005b57806370758498146100fe57806392b101c51461011a578063bff9082114610136578063cdaa3abf146101665761007d565b80630bd1410314610082578063146f46d3146100b257806317fafb0f146100ce575b600080fd5b61009c60048036036100979190810190610a82565b610196565b6040516100a99190610ecf565b60405180910390f35b6100cc60048036036100c79190810190610ac3565b610256565b005b6100e860048036036100e39190810190610a82565b6102f6565b6040516100f59190610ead565b60405180910390f35b61011860048036036101139190810190610ac3565b610559565b005b610134600480360361012f9190810190610b5a565b6105c4565b005b610150600480360361014b9190810190610a82565b610688565b60405161015d9190610ecf565b60405180910390f35b610180600480360361017b9190810190610a82565b610748565b60405161018d9190610e8b565b60405180910390f35b60606001826040516101a89190610e74565b90815260200160405180910390208054600181600116156101000203166002900480601f01602080910402602001604051908101604052809291908181526020018280546001816001161561010002031660029004801561024a5780601f1061021f5761010080835404028352916020019161024a565b820191906000526020600020905b81548152906001019060200180831161022d57829003601f168201915b50505050509050919050565b6000836040516102669190610e74565b90815260200160405180910390206040518060400160405280848152602001838152509080600181540180825580915050906001820390600052602060002090600202016000909192909190915060008201518160000190805190602001906102d0929190610909565b5060208201518160010190805190602001906102ed929190610909565b50505050505050565b60606003826040516103089190610e74565b9081526020016040518091039020805480602002602001604051908101604052809291908181526020016000905b8282101561054e5783829060005260206000209060030201604051806060016040529081600082018054600181600116156101000203166002900480601f0160208091040260200160405190810160405280929190818152602001828054600181600116156101000203166002900480156103f25780601f106103c7576101008083540402835291602001916103f2565b820191906000526020600020905b8154815290600101906020018083116103d557829003601f168201915b50505050508152602001600182018054600181600116156101000203166002900480601f0160208091040260200160405190810160405280929190818152602001828054600181600116156101000203166002900480156104945780601f1061046957610100808354040283529160200191610494565b820191906000526020600020905b81548152906001019060200180831161047757829003601f168201915b50505050508152602001600282018054600181600116156101000203166002900480601f0160208091040260200160405190810160405280929190818152602001828054600181600116156101000203166002900480156105365780601f1061050b57610100808354040283529160200191610536565b820191906000526020600020905b81548152906001019060200180831161051957829003601f168201915b50505050508152505081526020019060010190610336565b505050509050919050565b8160018460405161056a9190610e74565b9081526020016040518091039020908051906020019061058b929190610989565b508060028460405161059d9190610e74565b908152602001604051809103902090805190602001906105be929190610989565b50505050565b6003846040516105d49190610e74565b9081526020016040518091039020604051806060016040528085815260200184815260200183815250908060018154018082558091505090600182039060005260206000209060030201600090919290919091506000820151816000019080519060200190610644929190610909565b506020820151816001019080519060200190610661929190610909565b50604082015181600201908051906020019061067e929190610909565b5050505050505050565b606060028260405161069a9190610e74565b90815260200160405180910390208054600181600116156101000203166002900480601f01602080910402602001604051908101604052809291908181526020018280546001816001161561010002031660029004801561073c5780601f106107115761010080835404028352916020019161073c565b820191906000526020600020905b81548152906001019060200180831161071f57829003601f168201915b50505050509050919050565b606060008260405161075a9190610e74565b9081526020016040518091039020805480602002602001604051908101604052809291908181526020016000905b828210156108fe5783829060005260206000209060020201604051806040016040529081600082018054600181600116156101000203166002900480601f0160208091040260200160405190810160405280929190818152602001828054600181600116156101000203166002900480156108445780601f1061081957610100808354040283529160200191610844565b820191906000526020600020905b81548152906001019060200180831161082757829003601f168201915b50505050508152602001600182018054600181600116156101000203166002900480601f0160208091040260200160405190810160405280929190818152602001828054600181600116156101000203166002900480156108e65780601f106108bb576101008083540402835291602001916108e6565b820191906000526020600020905b8154815290600101906020018083116108c957829003601f168201915b50505050508152505081526020019060010190610788565b505050509050919050565b828054600181600116156101000203166002900490600052602060002090601f016020900481019282601f1061094a57805160ff1916838001178555610978565b82800160010185558215610978579182015b8281111561097757825182559160200191906001019061095c565b5b5090506109859190610a09565b5090565b828054600181600116156101000203166002900490600052602060002090601f016020900481019282601f106109ca57805160ff19168380011785556109f8565b828001600101855582156109f8579182015b828111156109f75782518255916020019190600101906109dc565b5b509050610a059190610a09565b5090565b610a2b91905b80821115610a27576000816000905550600101610a0f565b5090565b90565b600082601f830112610a3f57600080fd5b8135610a52610a4d82610f1e565b610ef1565b91508082526020830160208301858383011115610a6e57600080fd5b610a79838284610fff565b50505092915050565b600060208284031215610a9457600080fd5b600082013567ffffffffffffffff811115610aae57600080fd5b610aba84828501610a2e565b91505092915050565b600080600060608486031215610ad857600080fd5b600084013567ffffffffffffffff811115610af257600080fd5b610afe86828701610a2e565b935050602084013567ffffffffffffffff811115610b1b57600080fd5b610b2786828701610a2e565b925050604084013567ffffffffffffffff811115610b4457600080fd5b610b5086828701610a2e565b9150509250925092565b60008060008060808587031215610b7057600080fd5b600085013567ffffffffffffffff811115610b8a57600080fd5b610b9687828801610a2e565b945050602085013567ffffffffffffffff811115610bb357600080fd5b610bbf87828801610a2e565b935050604085013567ffffffffffffffff811115610bdc57600080fd5b610be887828801610a2e565b925050606085013567ffffffffffffffff811115610c0557600080fd5b610c1187828801610a2e565b91505092959194509250565b6000610c298383610dd2565b905092915050565b6000610c3d8383610e16565b905092915050565b6000610c5082610f6a565b610c5a8185610fb0565b935083602082028501610c6c85610f4a565b8060005b85811015610ca85784840389528151610c898582610c1d565b9450610c9483610f96565b925060208a01995050600181019050610c70565b50829750879550505050505092915050565b6000610cc582610f75565b610ccf8185610fc1565b935083602082028501610ce185610f5a565b8060005b85811015610d1d5784840389528151610cfe8582610c31565b9450610d0983610fa3565b925060208a01995050600181019050610ce5565b50829750879550505050505092915050565b6000610d3a82610f8b565b610d448185610fe3565b9350610d5481856020860161100e565b610d5d81611041565b840191505092915050565b6000610d7382610f8b565b610d7d8185610ff4565b9350610d8d81856020860161100e565b80840191505092915050565b6000610da482610f80565b610dae8185610fd2565b9350610dbe81856020860161100e565b610dc781611041565b840191505092915050565b60006040830160008301518482036000860152610def8282610d99565b91505060208301518482036020860152610e098282610d99565b9150508091505092915050565b60006060830160008301518482036000860152610e338282610d99565b91505060208301518482036020860152610e4d8282610d99565b91505060408301518482036040860152610e678282610d99565b9150508091505092915050565b6000610e808284610d68565b915081905092915050565b60006020820190508181036000830152610ea58184610c45565b905092915050565b60006020820190508181036000830152610ec78184610cba565b905092915050565b60006020820190508181036000830152610ee98184610d2f565b905092915050565b6000604051905081810181811067ffffffffffffffff82111715610f1457600080fd5b8060405250919050565b600067ffffffffffffffff821115610f3557600080fd5b601f19601f8301169050602081019050919050565b6000819050602082019050919050565b6000819050602082019050919050565b600081519050919050565b600081519050919050565b600081519050919050565b600081519050919050565b6000602082019050919050565b6000602082019050919050565b600082825260208201905092915050565b600082825260208201905092915050565b600082825260208201905092915050565b600082825260208201905092915050565b600081905092915050565b82818337600083830152505050565b60005b8381101561102c578082015181840152602081019050611011565b8381111561103b576000848401525b50505050565b6000601f19601f830116905091905056fea365627a7a72315820d0c3cae2a05e8200cff5d8316defaeb736cf4fbca9a850c7eb5ca60070fd97406c6578706572696d656e74616cf564736f6c634300050b0040",
  "source": "// SPDX-License-Identifier: MIT\r\npragma solidity >=0.5.11;\r\npragma experimental ABIEncoderV2;\r\n\r\ncontract CryptoDrive{\r\n    // Structure for storing the filehash,filename as File \r\n    \r\n    struct File{\r\n        string filehash;\r\n        string filename;\r\n    }\r\n    \r\n    // Structure for storing the filehash,filename,sender user_id as ShareFile \r\n    \r\n    struct ShareFile{\r\n        string filehash;\r\n        string filename;\r\n        string sender;\r\n    }\r\n    \r\n    \r\n    // Mapping for Storing user id as string and File Structure array as value\r\n    // Mapping is private\r\n    \r\n    mapping(string=>File[]) private FileHashes;\r\n    mapping(string=>string) private PassHash;\r\n    mapping(string=>string) private PublicKeys;\r\n    mapping(string=>ShareFile[]) private SharedData;\r\n    \r\n    // Function AddFileHash which takes user id , filehash , filename\r\n    // It is pushes the structure in Filehash Mapping\r\n    \r\n    function AddFileHash(string memory user_id,string memory filehash,string memory filename) public {\r\n        FileHashes[user_id].push(File(filehash,filename));\r\n    }\r\n    \r\n    // Function GetFilehash which takes the user id \r\n    // It will return the struct array\r\n    \r\n    function GetFilehash(string memory user_id) public view returns (File[] memory){\r\n        return FileHashes[user_id];\r\n    }\r\n    \r\n    // Funtion to Save the user id , pass hash, public keys in the different mappings while SignUp\r\n    \r\n    function SignUp(string memory user_id,string memory pass_hash,string memory public_keys) public{\r\n        PassHash[user_id]=pass_hash;\r\n        PublicKeys[user_id]=public_keys;\r\n    }\r\n    \r\n    // Function to GetPassHash which takes user id as input and returns PassHash which is saved earlier\r\n    \r\n    function GetPassHash(string memory user_id) public view returns (string memory){\r\n        return PassHash[user_id];\r\n    }\r\n    \r\n    // Function to get public keys for a particular input user id\r\n    \r\n    function getPublicKey(string memory user_id) public view returns (string memory){\r\n        return PublicKeys[user_id];\r\n    }\r\n    \r\n    // Function to save the shared data with respective of the receiver \r\n    // The input parameters are user id of receiver , filehash , filename , sender username\r\n    \r\n    function AddShareFile(string memory user_id,string memory filehash,string memory filename,string memory sender) public {\r\n        SharedData[user_id].push(ShareFile(filehash,filename,sender));\r\n    }\r\n    \r\n    \r\n    // function to get the details of shared files for given receiver user id\r\n    \r\n    function GetShareDetails(string memory user_id) public view returns (ShareFile[] memory){\r\n        return SharedData[user_id];\r\n    }\r\n    \r\n    \r\n    \r\n}\r\n\r\n",
  "sourcePath": "C:/Users/ASUS/Desktop/CryptoDrive/src/smart_contracts/contracts/CryptoDrive.sol",
  "compiler": {
    "name": "solc",
    "version": "0.5.11+commit.c082d0b4.Emscripten.clang"
  },
  "schemaVersion": "3.3.4",
  "updatedAt": "2021-04-02T09:08:30.105Z",
  "networkType": "ethereum",
  "devdoc": {
    "methods": {}
  },
  "userdoc": {
    "methods": {}
  }
}